:100000000010002065070000159C0000B9EE0100FB
:10001000B9EE01001D9C0000259C0000B9EE010016
:10002000B9EE0100B9EE0100B9EE0100B9EE010030
:10003000299C0000B9EE0100B9EE0100B9EE010003
:10004000B9EE0100B9EE0100B9EE0100B9EE010010
:10005000B9EE0100B9EE0100B9EE0100B9EE010000
:10006000B9EE0100B9EE0100B9EE0100B9EE0100F0
:100070002D510000B9EE0100B9EE0100B9EE01000A
:10008000B9EE0100B9EE0100B9EE0100B9EE0100D0
:10009000B9EE0100350B0000B9EE0100B9EE010028
:1000A000B9EE0100150B0000F50A0000B9EE0100E1
:1000B000B9EE010079FE0000B9EE01003907010038
:1000C000933602008F360200DDFE0000A9360200E2
:1000D00097360200090701009B36020079070100EC
:1000E0008516010061F20000E5070100B9EE01008C
:1000F000B9EE0100B9EE0100B9EE0100B9EE010060
:10010000B9EE0100B9EE0100B9EE0100B9EE01004F
:10011000B9EE0100B9EE0100B9EE0100B9EE01003F
:10012000B9EE0100B9EE0100B9EE0100B9EE01002F
:10013000B9EE0100B9EE0100B9EE0100B9EE01001F
:10014000F0B5114A114C124E00F00105E3695F074A
:1001500013D40DB9334213D103EA00078F4207D1FC
:100160000B4A1A40002A0CBF00206FF00100F0BDBE
:10017000013AEBD16FF00200F9E74FF0FF30F6E7FC
:100180006FF00100F3E700BF809698000000035075
:10019000020001000B4B70B5D96911F480310DD10B
:1001A00001244FF48072084E084DF46020462C6400
:1001B0001A61FFF7C5FF3464EC6070BD6FF0010099
:1001C000FBE700BF00000350001003500020035065
:1001D000C0F30C0370B5054623B140F21A21114853
:1001E00000F0A2F84FF400320F4B104C9A6641F623
:1001F00071330122E669E3630D4B0021DA600223CB
:1002000065612120236106F48036FFF799FF10B95C
:100210002120FFF795FF0122064BDA600EB1002383
:10022000E36370BD4681020000900050000003505F
:10023000001003500020035070B5134C6061E36957
:100240005B071ED40E4656F8043B8D18A361AE42E0
:100250000BD10423002121202361FFF771FF58B93E
:10026000BDE870402120FFF76BBF08210846FFF76B
:1002700067FF10B10423236170BD56F8043BA361EE
:10028000E5E74FF0FF30F7E7000003502DE9F843B2
:10029000154682070F46064604D040F266211E48E6
:1002A00000F042F8AB0704D04FF41A711A4800F07E
:1002B0003BF84FF40032194BDFF868909A6603F56B
:1002C0001C33DA6902F4803841F67132DA630122B4
:1002D00003F58053DA6065B928460122104BDA60D5
:1002E000B8F1000F03D00022A3F50053DA63BDE894
:1002F000F88306F5005404EA0904A41BAC4228BFA5
:100300002C46394622463046FFF796FF0028E4D1B6
:10031000264427442D1BDEE7468102000090005052
:100320000020035000E0FFFF5FF800F0D5EE010071
:100330002DE9F04F4FF0210A93B0984609AC0DF12A
:100340001F030393CDF808A0019403890546009389
:1003500083790F4691464188828840789DF878B02D
:1003600021F09CFA064600284BD19DF81F0020F092
:100370007BFE00285ED1524621469DF81F0020F0EA
:100380001FFE0346002857D01C9A1AB1BDF87420EE
:10039000904251D800229DF81FA00892AAF1410076
:1003A0000128D9B224D8A44601395FFA81FE264932
:1003B000724516DB08910421BBF1000F1BD108AC7C
:1003C000182222489FED1E7B02FB070528460A469D
:1003D00008302146059385ED027B22F0E5FC059B64
:1003E00015E01CF8010F0132484019494143DFE78D
:1003F000BBF1000F09D02B4652462046009706F06D
:10040000C1FE304613B0BDE8F08F0829D8D9B9F144
:10041000000F01D089F800A0B8F1000F01D0A8F8B2
:1004200000301C9A002AECD01A461C9809A922F028
:10043000BBFCE6E78D26E4E70126E2E7AFF30080A8
:100440000000000000000000C59D1C816810002015
:10045000930100010000000070B58EB02C22002135
:1004600003A822F08FFC64234FF002320893CDE9F9
:1004700005230B2301218DF834305B4B8DF81010D0
:100480001D880D4040F0A880084626F0CBFA0A22CD
:10049000564B574C1A704FF42873ADF812304FF08A
:1004A000FF332360534B54491B8820460B82534B28
:1004B000534A1B68CD828B61524B0D621B884B8265
:1004C000514B1B68CB6110F09BFE20B140F27921AB
:1004D0004E4827F02BFB0521206823F0B0F920B10E
:1004E00040F28A21494827F021FB20680AF09CFB52
:1004F000002120681FF082FD0C2526F0F1FE6843E4
:10050000099026F0EDFE68430DEB05010790206889
:100510000BF076F920B140F2A2213C4827F006FB0F
:10052000256813F0C3FA00220146284622F0E6FCB3
:1005300020B14FF42971354827F0F8FA40F20353FF
:10054000334D344E2B80052396F90000AB707F2885
:1005500001D111F081F93378EB7026F0C1FE00EB88
:1005600080008000A88026F0BBFE0023C0004FF072
:10057000FF31E880AB604FF0FF3019A3D3E90023CF
:1005800026F0A2FB2449206822F075FC206802A90D
:1005900023F0ABF920B140F2DD211C4827F0C6FA68
:1005A000042220680DEB020122F029FC042804D06B
:1005B0004FF43971154827F0B9FA01A9012022F04A
:1005C000A7FA09F06BFB012011F0CAFD21F0BDFD77
:1005D00011F0F0FD11F0D8F80EB070BDAFF300804F
:1005E0000A0020FF42030000E42E00207D3100209D
:1005F000B82A002084990200A03500208C990200BE
:100600004D6A0200829902008899020021CF0200FF
:10061000AC2A00203C380020C16A02000348044B89
:10062000834202D0034B03B118477047683800205B
:100630006838002000000000064B0749C91A8910DD
:1006400048BF0131491003D0044B0BB10148184792
:10065000704700BF683800206838002000000000A4
:1006600010B5064C237843B9FFF7D8FF044B13B1FC
:100670000448AFF300800123237010BDC22F002077
:1006800000000000C8D1020008B5054B1BB10549A8
:100690000548AFF30080BDE80840FFF7CDBF00BFBD
:1006A0000000000070130020C8D10200A3F5803ABA
:1006B000704700BF174B002B08BF134B9D46FFF739
:1006C000F5FF00218B460F461348144A121A22F0F8
:1006D00059FB0E4B002B00D098470D4B002B00D040
:1006E00098470020002104000D000D48002802D08A
:1006F0000C48AFF300800AF0DFFF2000290022F051
:10070000E1FA0AF0B9FF00BF000008000000000095
:10071000000000000010002000100020DC3100204C
:10072000000000000000000008B5034827F027F98A
:10073000BDE8084022F009BACC840200014827F045
:100740001EB900BFCC8402000348044A0449121AAF
:1007500092101EF0B2BB00BF400100003003000049
:100760007832002008B5154B83F30A8800F030F882
:10077000FFF7EAFF124B13498B4212D30020124BB2
:1007800012498B4218D3FFF795FF186850F82240A2
:10079000586840F82240013298688242F5D30C3301
:1007A000EAE70022F8E71C6844F8220001325C689E
:1007B000A242F8D30833E4E70022F8E70000002063
:1007C000D0D10200DCD10200DCD10200DCD1020079
:1007D0004FF40041134B144A70B59A60D3F8882047
:1007E000124D42F47002C3F88820114A05F50054F6
:1007F00091664FF0FF3222664FF6DF726266022288
:10080000C3F8D020BFF34F8FBFF36F8F4FF4403644
:10081000032004F0DDF80320E66004F0A7F82E6161
:1008200070BD00BF00ED00E000000000008000444B
:1008300000900050014B1860704700BF6C340020DE
:10084000054B1860054B1B6F03F00703032B01D109
:1008500025F010BB704700BF7434002000800050AA
:1008600038B504460D4601B118B9372103481EF0CA
:1008700031FB23682B60256038BD00BFA87D0200D6
:10088000BFF34F8F0549064BCA6802F4E062134379
:10089000CB60BFF34F8F00BFFDE700BF00ED00E06E
:1008A0000400FA05002307B52948019327F067F8EB
:1008B0004FF44073012204216846ADF8003000F087
:1008C0009DF80122234B0520C3F8442401A927F0F9
:1008D00051F8002839D1204BD3F8F02042F0010222
:1008E000C3F8F020D3F8FC2042F08072C3F8FC205B
:1008F0001A4AA3F55D431A60019B194A03F5D523F3
:1009000003F2FC43B3FBF2F3164A013B13610223EB
:10091000C2F8F0304FF48073C2F804334FF06043F4
:10092000114AC3F8B02F114AC3F8802ED3F8002E15
:1009300042F48072C3F8002EFF2283F82020D3F8FF
:10094000002E22F48072C3F8002E03B05DF804FB81
:10095000CC84020000D0035000ED00E0FF03004013
:10096000F8590D00000004E055CEACC509000100A7
:10097000F8B504460127124D0CB314F001000BD05A
:10098000002024F0010405EBC0021668002EF3D00D
:100990005168C0B2B047EFE72246013020284FEA45
:1009A000520201D0D307F8D507FA00F20F2824EA43
:1009B0000204E8D9421E05EBC2021038E5E7F8BD93
:1009C0008813002008B50C4826F0D9FF192003F041
:1009D000E7FF28B1192003F0FBFF192003F0C6FF41
:1009E0001A2003F0DDFF28B11A2003F0F1FF1A20CE
:1009F00003F0BCFF002008BDCC840200F8B50D4612
:100A00001646044628B9154889211EF063FA2220AB
:100A1000F8BD0F2903D98C2110481EF05BFA23780A
:100A2000D3B1013BDBB2022B05D80D4AD35C62780F
:100A3000D340DB0703D48D2108481EF04BFA26F083
:100A400093FF074632462946204603F035FE3846D6
:100A500026F085FF0020DBE77F23E8E7187E020011
:100A60008A7E020010B5044628B90E48CF211EF038
:100A700031FA222010BD037893B1013BDBB2022B87
:100A800005D8094AD35C6278D340DB0703D4D2216E
:100A900004481EF01FFA204625F020FA0020E9E75E
:100AA0007F23F0E7187E02008A7E020010B504461C
:100AB00028B90E48DF211EF00DFA222010BD037860
:100AC00093B1013BDBB2022B05D8094AD35C6278B3
:100AD000D340DB0703D4E22104481EF0FBF9204693
:100AE00003F0B2FD0020E9E77F23F0E7187E020063
:100AF0008A7E020008B503F0D5FD054B00F05530A5
:100B000020F05020C3F82004BDE80840FFF730BFB4
:100B100000E0035008B503F0C5FD054B00F0AA3016
:100B200020F0A020C3F82004BDE80840FFF720BF54
:100B300000E00350184B2DE9F0411F6D5B6D1F4025
:100B400000D5FEE701260025144CDFF85880374217
:100B500018D02368C8F85060A3B1A16828460131B5
:100B60006268A1609847637B012B0BD150B90C4B95
:100B700003EB45131A7B60F341021A731A7F60F38B
:100B800041021A770135082D4FEA460604F1100498
:100B9000DDD1BDE8F08100BF0000045078150020D1
:100BA00078140020002004502DE9F04F144605462B
:100BB0000E469B46C36B87B001225B6902A9606841
:100BC0009847EB6B01225B6903A93046984702A85E
:100BD0001EF003FE074648B10023A37563754FF06E
:100BE000FF33A360002007B0BDE8F08F03A81EF01C
:100BF00001FE0123A375237E04EBC303DE611F8482
:100C00006368B3420ED1206003A81EF015FE4FF0BA
:100C1000FF332075A360237D043B022B26D80023DD
:100C2000A375DFE723681A1A53425341A37503A83B
:100C30001EF002FE237D834218BFA77503A81EF095
:100C4000DDFD074602A81EF0D9FD874218BF00232C
:100C500003A818BFA3751EF0D9FD074602A81EF011
:100C6000D5FD87421CBF0023A375D4E703A81EF05F
:100C7000C5FD80B1EB6B022230465B6904A9984741
:100C800004A81EF0CAFD0346207D032839D8DFE8FA
:100C900000F03838040903A8F3E7CC22237E04EBE4
:100CA000C3031A8401F014FC109B187003A8277E5C
:100CB0001EF098FD04EBC70787F82200237E03A8E7
:100CC00004EBC303B3F8209093F822701EF096FD56
:100CD000804603A81EF09AFD8246B8F1000F15D099
:100CE000EB6B022230465B6904A9984704A81EF00A
:100CF00059FD6075637D6BB90023A3754FF0000843
:100D000038E0227E04EBC2021384CBE703A81EF076
:100D100034FDEEE794F81680B8F1000FEED0B9F18B
:100D2000000F09D1DFB10123E375637E002B4FD1A2
:100D3000012F42D1677614E06B6C06EB0A02594230
:100D400086EA020008421CBF0021A175591E0A4014
:100D50009B1A9945D0D8A37D002BE3D1CEE7E37D44
:100D600043B94FF000084B465246314628461EF024
:100D700076FAA060A27D12B123694B4423611A491F
:100D8000237E097899422AD901332376BBF1000FDB
:100D900027D032B3E37D23B3B8F1000F21D1032F65
:100DA0001FD0A1684B1C1CD0109B224600932846E4
:100DB0000123FFF7F9FEA07513E095F8343063B90D
:100DC000EB6A0133CFD1032FCDD10123A376C8E73E
:100DD000012FCFD0032FC4D1F7E79846C3E70023F4
:100DE000A375A07DFFE600BFB07E02002DE9F04FA5
:100DF0000E46984600238BB004464FF0FF31104654
:100E000017468DF8133001F04DFBB6F5801F3BD32C
:100E1000B21C53D1E56A6B1C57D12046616A1EF0A3
:100E200064F90546B31C18BF0123DFF81091019344
:100E3000636A626C0293236805A902FB053AE36BBF
:100E400005225B695046984705A81EF061FD1EF01B
:100E500084FD50461EF08CFD4FF0000B824601468B
:100E60004B1C05D0636C81EA0A025B42134232D00C
:100E7000294620461EF039F9029BAB424DD0BBF10A
:100E8000000F4DD10546D3E7314605AA04F108000D
:100E90001EF0F5FB0146481C10D0384601F002FB5D
:100EA0000122394620460DF113031EF02AFA28B11B
:100EB0009DF8133088F80030002003E0237C002BDD
:100EC000A8D12D200BB0BDE8F08F2368ED1A636C1C
:100ED000B5FBF3F5A6E7484601F0E4FA0DF113037C
:100EE00049462046019A1EF00CFA034690B1B21C06
:100EF00003D0D9F80020B2420CD19DF813200393FF
:100F00000D4B88F8002049461A68384621F04CFFFE
:100F1000039B9B46D9F80810A2E7BBF1000FD0D085
:100F2000B6F5801FC8D2314698F800307A6804F1CF
:100F3000080001F0E5F9BFE7AC7E02006C1C002060
:100F40002DE9F3410446174698460E46194D816A2D
:100F5000E36A8B422AD04B1C18E0284601F0A2FA23
:100F60000122294620460DF107031EF0CAF930B1CF
:100F70004346294620469DF80720B847B0B1A968E6
:100F80004A1C05D0012E0AD0E36A9942E5D10DE052
:100F9000696820461EF036F9012E0146D8D16B68EB
:100FA00081EA0302636C5B421A42D1D002B0BDE811
:100FB000F08100BF401C00202DE9F0474FF0FF33C7
:100FC0004FF6FF720025044600F10806C0E9092328
:100FD0008AB0C3620562056330460F461EF020FBEF
:100FE00020461EF002F828BB204639461EF0CDF8F8
:100FF00020461DF0FAFF28BB5E200AB0BDE8F0874E
:10100000E26B2368606CD2F814C000FB0530052247
:1010100005A9E04705A81EF07BFC012840F083806D
:10102000294620461EF082F8421C294620461DF023
:10103000FBFF0135E3699D42E2D320461DF0D5FF59
:101040000028D1D020461EF000F84FF6FF72636AE8
:10105000934200F0B080E26B676C2068694607FB42
:10106000030055690522A84768461EF028FC626AFD
:101070002368606C514D00FB02301EF079FC4FF08C
:10108000FF33A062E3622A466FF00101204605AB00
:10109000FFF7ACFE002850D1AD6829462046E56236
:1010A0001DF07FFF206320B92046E16A1EF0AAF8F8
:1010B000E062294620461EF0A5F80546A36A9D4237
:1010C0003DD120461DF02BFF00278046B946E3693D
:1010D000994546D3B84563D92046616A1EF005F8A4
:1010E0000026054604F1400ABE4212D3626C236812
:1010F000694602FB0539E36B05225B694846984760
:1011000068461EF0DCFB534602464946E06B1EF083
:1011100031FC294620461DF0E8FF0136B045054662
:10112000E2D1642069E71EF01DFC002881D0294629
:1011300020461DF0FBFF024677E7A56AADE729468A
:1011400020461DF02EFF236B2946034407462363E8
:1011500020461EF057F80546002FAFD1C4E90B0713
:10116000ACE7636C2568052203FB0955E36B05A911
:101170005B692846984705A81EF0CAFB1EF0EDFBE8
:1011800058B128461EF0F4FB014620461DF009FF29
:10119000636C143B984208BF013709F1010996E7D7
:1011A00030461EF03DFA002320461946044AFFF758
:1011B000C7FE002021E767201FE700BF981C002022
:1011C000F1F201002DE9F041036B9046826B076854
:1011D0009A4288BF8363426C436A90B002FB0377F4
:1011E000C36B0E46052201A95B6904463846984741
:1011F00001A81EF08DFB01280146307057D0656CA8
:10120000E26B2368606AD2F814C005FB0030052247
:1012100006A9E04706A81EF07BFB01284FF0000559
:1012200023D0D4E90A3201219342CDE90B458DF850
:1012300034800E958DF83C102AD1194620461DF0B9
:10124000E1FF236B626C14339B1AE06223630C9BF7
:1012500053B99DF83C303BB1626A616C2368E06B26
:1012600001FB02311EF00CFB0C9DE36B05225B6958
:1012700001A93846984701A81EF04AFB307028465D
:10128000236BA26B9A4288BFA36310B0BDE8F081C4
:10129000237C33B91C490BAA04F1080001F07EF845
:1012A000D5E72046194A0BABFFF74AFECFE7237C70
:1012B00023BB2246164904F1080001F06FF8616A69
:1012C00020461DF033FF616A421C20461DF0ACFE33
:1012D000054620B9236B626C1344143B23632046FC
:1012E000A16A1DF08FFF2368A062C01A636CB0FB77
:1012F000F3F0606220461DF0C8FFB6E700232046E9
:10130000044AFFF71DFEDAE7BD1A0000391A000093
:101310008BF3010027F3010073B50D46D11E4A423D
:101320001C461B7E4A419A4226D12968236899426D
:1013300022D3636899421FD8114E0DF1070332463C
:10134000FFF754FDC0B972686B689A4214D19DF8DA
:101350000730DA1E53425341227E93420CD1636917
:1013600001336361D4E90323934205D22968A2685B
:1013700042F8231001332361012002B070BD00BF89
:10138000981C00202DE9F04F9A468BB09DF8503004
:10139000DFF850B10293DBF81030804653450D461C
:1013A0001646C0F09980D146DBF804300193B9F1BC
:1013B000000F00F08D80D8F83C3001225B6907A94E
:1013C0000198984707A81EF015FADBF800309842FC
:1013D00040F0858007A81EF019FA0428074614D1AA
:1013E00007A81EF01AFA019B029A04463B44002A01
:1013F0003FD1864212D91446361A404601991DF053
:1014000001FFA9EB04090190D1E7D8F83C30022292
:101410005B69019808A9984708A8E2E7841B54452E
:1014200028BF5446032C03EB0607AAEB040A4FEA35
:1014300094021CD9D8F83C30294638465B69984755
:1014400024F0030304F003061F441D44002ED4D0EF
:10145000D8F83C3001225B6908A9384698473246E3
:10146000284608A9354421F09FFC0026C5E72646FA
:10147000ECE7074600F00302039203442A180492A3
:101480000593049BDD1B059BD81B039B9F420FD13B
:10149000002FB2D0D8F83C30012208A95B699847E8
:1014A0003A46284608A921F043FC78B93D44A4E710
:1014B000D8F83C30012208A95B69984704222846E5
:1014C00008A921F035FC08B9043FDAE74FF03609E6
:1014D00048460BB0BDE8F08F4FF06309F8E74FF0D6
:1014E0006F09F5E7C41C00202DE9F0410F461646B0
:1014F0009846044688B060B390F83450FDB101219D
:101500001DF068FD00210E9BCDE90511CDE90237E4
:101510009DF83C30CDF804808DF81C30237C049677
:101520008BB90D4901AA04F1080000F037FFDDE98D
:101530000553E06B002E08BF1D461DF034FF284602
:1015400008B0BDE8F0812046044A01ABFFF7F8FC83
:10155000EDE70546F3E700BF55F30100191300005E
:101560007FB590F84260044601920DF10B030A46E4
:10157000304612491DF01FFF012E0546E36B19D1BD
:1015800032465B6903A998479DF80B10039B019AAB
:1015900059B19BB243EA0243012228460393E36B0D
:1015A00003A99B69984704B070BD1B0C1B0492B241
:1015B0001343F1E701229B6901A9F3E7C41C002052
:1015C0002DE9F04F99B00F4609920A69416C0E93CC
:1015D0001439D31DB3FBF1F3013302EBC302036BE8
:1015E00004469342C0F0BC810023DFF844940D937D
:1015F000E36A48461946079300F054FFD7E90336DB
:1016000004930E9B022B4ED1CC2E40F08A81099B75
:10161000002B42D0394620461DF023FF656C079A07
:101620006B1E13401490ED1AE36B01225B6916A93F
:101630007868984716A81EF0E1F800280CBF04232C
:101640000823782E06933DD9012300254FF0080A80
:1016500005933B6805990E98C9F80030C9F81060E9
:101660001EF0EEF84FEA9A0310930023DDF81CB049
:1016700089F814000B930F9308930C93616C4A1E26
:101680000BEA02028B1A002E38D05544AB4240D8E8
:10169000236B5B1A13442363ABE0049B1B68149316
:1016A00008230693D0E7656C079A6B1E1340782ECB
:1016B000A5EB030516D8FB7D7BB9099B002BB3D1A5
:1016C00004230693331DAB4210D9A6B1082DBBD815
:1016D00004250023AA460593BBE7099B002BA3D151
:1016E0000823EEE7099B002B9ED1D9E7002505953D
:1016F0004FF0040AADE704250596F9E75345C7D333
:10170000B0460BEB0A030393089B002B18BF03237F
:1017100013E0A3EB0A039E42B0460BEB0A0228BF7C
:1017200098469E420392EFD90123D9F8102089F8F8
:101730001730964271D1C9F804B0089399F8173060
:10174000002B6CD099F818200899D31C09EBC3031F
:101750000132C3F804B0A3F80880997289F8182000
:10176000B8F1000F14D00E9B022B5BD10B9B7BB901
:101770000F9B4344032B0BD9E36B01229B69039816
:1017800014A998470546002840F0EC8001230B93EC
:10179000089B16A80193059B009399F814204346D3
:1017A000396800F035FEE36B58469B69109A16A91C
:1017B0009847051E0D9B18BF5B4652460D93594630
:1017C000434620461DF04BFD236B08F10302A3EBBB
:1017D0000A0322F003029B1AC9F808002363002DB4
:1017E00040F0C0800F9BDDF80CB04344A6EB080628
:1017F0000F93594620461DF005FD00258346002E17
:101800007FF43CAF8A4A3968936804F10800E362C8
:1018100052680E9B00F074FD84E002238DE7C9F846
:1018200004B09DE7099B002B30D1049BB8F1030F56
:1018300043440A9327D9DDE90301E36B4FEA980299
:101840009B6998470546002865D118F003025FD0D0
:10185000049B28F003052B440493039B1D444FF085
:10186000FF33049915A8159321F09EFAE36B2846DF
:101870009B69012215A9984705460A9B0493002DF0
:1018800086D0039B99E74246039DE8E7039B0A93B2
:1018900007F120031193FB7D78689BB100233D7E07
:1018A0000C9AD9B28D4211D9119903F1010C31F87A
:1018B0003310914226D9069907EBC303D8690A442D
:1018C000104403E00C9B069A13441844E36B012276
:1018D0005B6915A99847159B012213930C9B0A98E5
:1018E00004330C93E36B13A99B699847039B0A9AF3
:1018F00043449B1A042B054607D978B91346043391
:101900000A93C8E76346521ACBE70A9B0393B6E7EC
:101910000A9B04933CE70A9B0493B2E70A9B039358
:10192000AFE77026304619B0BDE8F08F002657E0CB
:1019300004F108001DF074FE3346314620463D4A4E
:10194000FFF7FEFA3A69616CD31D1439B3FBF1F36A
:10195000013302EBC302236B9342BFF449AE65E04F
:101960001C26DFE73D2D61D104F1080303932368B2
:10197000079A606CD61AB6FBF0F600FB06301DF035
:10198000F7FFE16A824620461DF03CFCA26A8242D3
:10199000D8D0626CD9F80830511E0B40216BE06240
:1019A000891A0B4423630D992368CB1AB3FBF2F811
:1019B0004645BBD1079BB3EB0A0611D0E36BB208D7
:1019C00051469B6998478346E36A079A3344E3622A
:1019D000236B03989B1A534423631DF021FE5E463C
:1019E0002368616CE06B01FB08311DF036FF204677
:1019F0001DF0FBFA20461DF028FB626A2368606C2C
:101A000000FB02301DF0B4FFA06220461DF03DFC3B
:101A10002063002E8CD03A69616CD31D1439B3FB5E
:101A2000F1F3013302EBC3029042A0D22E4679E7D4
:101A30006C1C0020F1F20100032A2DE9F341064657
:101A40000D4617461C4606D1237A012B23D00120D0
:101A500002B0BDE8F081DFF86080096842460DF110
:101A60000703FFF7C3F960600028EDD19DF8072058
:101A7000237A032AE8D0D8F804106A689142E3D1A7
:101A8000012B2969D4F80CC007D172690CEB010352
:101A9000934202D92074207CDAE708316144E16086
:101AA0003B46012229463046FFF78AFD6060002848
:101AB000CAD00020CCE700BF981C00202DE9F341DC
:101AC000089C032A1746266806D1237A012B24D0C6
:101AD000012002B0BDE8F081DFF890803046424638
:101AE0000DF10703FFF782F960600028EDD125684A
:101AF000D8F80400A96AD5F844C04840CCF10003E6
:101B00001840227AE1D1012A09D1E268D8F81030D0
:101B100013447269934202D92074207CD9E7286863
:101B2000EB6A1B1A081AB3FBFCF3B0FBFCF0834210
:101B30000BD1706CF36A421E1340326B121A1344BD
:101B4000284633631DF05EFBE862D8F81020E36896
:101B500008321344E36001223B4604492068FFF742
:101B60002FFD60600028B0D00020B2E7981C002054
:101B70002DE9F0410025634B0E46D3F80080044662
:101B80001D6018B921252846BDE8F08190F8347011
:101B900007B30A6803689A4240F0AA804A6843681B
:101BA0009A4240F0A5808A6883689A4240F0A080FB
:101BB000CA68C3689A4240F09B800A6943699A42A6
:101BC00040F096808A69C36B9A4240F091804B69DD
:101BD0008361D8E768223946856B21F0D3F8D6E9CE
:101BE0000212336804F1080023607368A563636020
:101BF000336963617369A3611DF024FDB36904F166
:101C00004000E3639B68984720B9676C17B163682D
:101C1000B3FBF7F794F84330E761002BB2D0002311
:101C2000656C2366002D6BD0002F69D02368B3FB51
:101C3000F5F205FB1233002B5CD16768B7FBF5F6B4
:101C400005FB1676002E55D120461DF09AF9A369A2
:101C5000043303449F424FD340F634726369CC3B54
:101C600093424BD8B5F5805F4AD3032120461DF03F
:101C7000B1F9D4E90001E36B1B6898470546E36BB3
:101C80000220DB6898472DB184F83460E06B1DF0CA
:101C90008AFB78E741462046FFF78EF9642805461F
:101CA00004D141462046FFF787F90546636C143B93
:101CB000D5B9226A204602FB03F61DF062F9A3693A
:101CC000043303449E4203D284F834505A25DDE79E
:101CD0000123D4E900010C4A84F83430136801333D
:101CE00013601DF049FDD1E7002384F83430CDE7BF
:101CF0005D2548E7592546E75A2544E75F2542E731
:101D00005B2540E7FC150020F81500202DE9F04385
:101D100085B00C4617461E460546DDF8308098B360
:101D200090F8343093B3B1F5801F31D2DFF864906E
:101D300001211DF04FF921464A4628460DF10F03B7
:101D4000FFF754F8044688B99DF80F30012B14D1E1
:101D5000D9F8102006EB08039A4213D300904346AB
:101D6000324639462846FFF70DFB0446E86B1DF066
:101D70001AFB204605B0BDE8F083022B14BF2D24CA
:101D80006024F3E76324F1E72124F2E71124F0E76C
:101D90002924EEE7C41C002073B50C461646054600
:101DA00030B390F834302BB3B1F5801F24D2012129
:101DB0001DF010F921462846104A0DF10703FFF7E0
:101DC00015F8044680B99DF80730032B0CD0022B80
:101DD0000CD1284609491DF044FB3060E86B1DF02A
:101DE000E2FA204602B070BD2D24F7E76124F5E742
:101DF0002124F6E71124F4E72924F2E7C41C00208B
:101E00002DE9F3411F4600230C46164605463B606C
:101E100050B390F834304BB3B1F5801F28D2DFF8BF
:101E2000548001211DF0D6F82146424628460DF186
:101E30000703FEF7DBFF0446A0B99DF80730032B2C
:101E400010D0022B0AD10123336004233B60E86BDE
:101E50001DF0A9FA204602B0BDE8F081D8F8103094
:101E60003060F3E72D24F2E72124F3E71124F1E7B2
:101E70002924EFE7C41C002073B5044641691DF016
:101E800065F8626E236B024493422CBF002201224C
:101E9000834294BF00231B1A207C84F85020636582
:101EA00084F85800A8B100230B4E1A461946204664
:101EB00000961DF0A3FB002305461A46194620464E
:101EC00000961DF0A4FBE3682844984294BF0020CC
:101ED000C01AE06502B070BDFFFF0F002DE9F347A7
:101EE0001E4643690446B342884617469DF828902B
:101EF0004FD300258DF80750204661691DF026F864
:101F0000D4F830A082450AD2236AB5EB430F06D23B
:101F1000002220460DF10701FFF754F9B8B39DF8F0
:101F20000730012B05D1002220460DF10701FFF7F4
:101F300049F9B9F1030F06D0314620461DF006F8E5
:101F4000256B854227D3154D4FF0FF31284600F011
:101F5000A9FA4B46294600222046C5E90376C5F872
:101F60000080FFF72DFB236E054663B12046FFF787
:101F700083FF94F8503013B994F858301BB1236E96
:101F800004F150009847284602B0BDE8F0870135BB
:101F9000B2E76225F7E71C25F5E700BF981C002093
:101FA0002DE9FF410F4690461E46054698B390F82E
:101FB000343093B3B1F5801F31D21A4C02211DF099
:101FC00009F82246394628460DF10F03FEF70EFFA9
:101FD000024678B1012342460093394633462846EB
:101FE000FFF77CFF0446E86B1DF0DDF9204604B0E6
:101FF000BDE8F0819DF80F30012BEBD12169B14292
:10200000E8D10093414633462846FFF7BBF9044622
:102010000028DFD1E7E72124E8E71124E6E72924B7
:10202000E4E700BFC41C00202DE9F04790F84260AF
:1020300086B0012E05460391A1EB020715D1B7F535
:10204000807F28BF03264FF0640800244FF6FF79F5
:10205000DFF840A195F84230012B14BF32236423EE
:102060009C420AD35FFA88F415E0B7F5803F34BF8D
:10207000012602264FF03208E7E705AB224651461B
:1020800028461DF0CCF995F84230012B059B34D140
:102090004B452DD1E4B295F84230012B0CBF6422A0
:1020A0003222121BB24217D3012E39D10022012B4A
:1020B00005978DF8132027D1082205A90DF11300EB
:1020C0001DF072FC9DF81330059A42EA0322214666
:1020D0002846FFF745FA40B102232E4900932846CF
:1020E000CC23096803AAFFF7F9FE06B0BDE8F08724
:1020F000DBB203B902340134ACE7591CCAD09BB23D
:10210000002BF8D10134F6E7102205A90DF11300D8
:102110001DF04AFC9DF81330059A42EA0342D6E7C7
:10212000039A012B059223D10823202205A90DF142
:1021300013008DF813301DF037FC9DF813201202A8
:1021400021462846FFF70CFA95F84230611C012B16
:10215000C9B21AD10028BFD12846BDF81420FFF714
:10216000FFF90028B8D10234BDF81620E1B2AFE77C
:102170001023202205A90DF113008DF813301DF056
:1021800013FC9DF813201204DAE70028A4D1059A65
:102190009EE700BFC41C002070B586B00E46054601
:1021A0000392A0B390F834309BB3B1F5801F32D2C4
:1021B00002211CF00FFF31462846184A0DF1170383
:1021C000FEF714FE044618B99DF81730032B0ED104
:1021D0000223314600932846CC2303AAFFF77EFE54
:1021E0000446E86B1DF0DFF8204606B070BD022BF8
:1021F0000BD10A4928461DF034F903990246814261
:10220000EFD02846FFF710FFEAE76124E9E7212431
:10221000EAE71124E8E72924E6E700BFC41C002010
:10222000F7B50C461646054668B390F8343063B3EC
:10223000B1F5801F2BD202211CF0CCFE214628468E
:10224000144A0DF10703FEF7D1FDC0B99DF8073020
:10225000032B14D0022B14D10E4928461DF001F98E
:10226000471C024639462846FFF7DEFE044606B103
:102270003760E86B1DF097F8204603B0F0BD2D24C1
:10228000F7E76124F5E72124F6E71124F4E7292490
:10229000F2E700BFC41C002030B50C46054685B0EF
:1022A00028B390F8343023B3B1F5801F23D2022134
:1022B0001CF090FE0DF10F03214628460F4AFEF751
:1022C00095FD034688B99DF80F20032A0DD00322FF
:1022D0002146009202462846FFF700FE0446E86BBE
:1022E0001DF061F8204605B030BD2D24F7E721240C
:1022F000F8E71124F6E72924F4E700BFC41C002006
:102300002DE9F043466886B3056898464FF0000C07
:10231000A946AE4655F83C400CF1010CC4F3130736
:10232000013401D0B94217D066450EF1080EF1D143
:102330002F46002403E0A64207F1080712D055F803
:10234000343001340133F6D1C1F3130141EA0851AD
:10235000C7E90012BDE8F08341EA0851CEE9001256
:10236000BDE8F083B8F1030F03D101230372BDE888
:10237000F083002303E09E4209F10809F5D055F8E7
:1023800033400133C4F30754032CF4D1C1F31303D6
:1023900043EA0853C9E90032BDE8F0832DE9F04172
:1023A0000646406882B0C0B10F46904600243368AC
:1023B00053F8345003EBC403C5F30752C5F31301BC
:1023C000013504F1010406D05B683046CDF8008089
:1023D000B84710B170688442E9D302B0BDE8F0811B
:1023E000024B1968024B1868FFF7C2BB7834002013
:1023F0009834002008B525F0AAFA014B186008BDF2
:10240000F01C0020014B186825F09CBAF01C00203D
:1024100073B504462248012A00EAC1119DF81850FC
:1024200023F07C4007D9961E012E28D9073303F0EC
:102430007F03194308E09DF81C300A43DB0603F0D4
:10244000C053134343F060410023C4E900108DF8EA
:102450000730B5B1202221460DF107001DF0A4FA86
:102460001A220DF10700211D1DF09EFA0820636855
:102470009DF8072043EA8263636002B070BD114398
:10248000E2E71B220DF1070021461DF08DFA2368BB
:102490009DF80720042043EAC2632360EDE700BFF4
:1024A00080FFFF0738B5094B0D461A680021044626
:1024B00020F068FC00234FF0FF322383C4E900259D
:1024C0002361A260E382A37638BD00BFAC7E020028
:1024D0000138C0B205289ABF014B185C0120704733
:1024E000B17E02002DE9F0410746154600240E4654
:1024F000596888B0490A012922464FEA510104F17E
:102500000104F8D8DC78997824031B88C90201F407
:10251000006104F480540C43C3F30A0352032344C0
:1025200092B24FF000089C18274B6FEA04440393C3
:1025300025F07843ED4302A90DF107001B22029319
:102540008DF807801DF030FA9DF80720029B02A944
:1025500043EAC2630DF107001B2225F0784504937E
:1025600002958DF807801DF01FFA9DF80720029B49
:102570006FEA144443EAC26305934FF0FF330794B4
:10258000069307A9BB69012206F110009847BB69B1
:1025900005A90446012206F108009847BB69404599
:1025A00018BF044604A90122301D98470122404566
:1025B00018BF0446BB69304603A99847404508BF89
:1025C000204608B0BDE8F08101009AB2034B5A687A
:1025D00012B19A6A002AFAD1704700BF0040065033
:1025E000024A936A0342FCD1704700BF0040065084
:1025F00070B5456804466B1EB3F5004F22D2B5FA9C
:1026000085F51449C5F11F054B680BB1FFF7DEFFD7
:102610000126114B20205E60FFF7E2FF227A6378EB
:1026200043EA420343EA0513627A8B60A37A43EAE2
:1026300042034B62094B5E60237813B1FFF7C6FF7C
:10264000CE6070BD412106481CF044FC002DD6D15F
:102650002025D6E700400650006006500050065086
:10266000B77E020010B50C4620B140F21D1106489D
:102670001CF030FC1020FFF7B3FF044B1C63BDE8D7
:102680001040FFF7ADBF00BFB77E0200004006500C
:1026900008B5FFF79BFF02230449CB6000230B62C0
:1026A000FFF794FF0123CB6008BD00BF0040065038
:1026B0000F4908B54B680BB1FFF788FF01200D4BA0
:1026C0005860FFF783FF0223CB6000230B62CB61CE
:1026D0000B634B628B61032307494B61FFF776FF66
:1026E000034B48609A6A002AFCD19A6008BD00BF7B
:1026F000004006500050065000600650044BD3F8CE
:102700008420D206FBD4D3F88400C0F38110704734
:102710000040005038B5104B0546D3F800310C4648
:1027200003F00303022B0BD0032B0DD0012B0FD191
:1027300023F0BAFB032305B1286004B1236038BD40
:1027400023F0BCFB0823F6E723F0B4FB0723F2E7F2
:1027500001230020EFE700BF0080005038B5104B88
:102760000546D3F820310C4603F00303022B0BD0AF
:10277000032B0DD0012B0FD123F056FB052305B100
:10278000286004B1236038BD23F08EFB0323F6E7F5
:1027900023F086FB0223F2E701230020EFE700BFCE
:1027A0000080005038B5104B0546D3F840310C4638
:1027B00003F00303022B0BD0032B0DD0012B0FD101
:1027C00025F0B8F8092305B1286004B1236038BDAD
:1027D00023F074FB0823F6E725F0AFF80B23F2E7AC
:1027E00001230020EFE700BF0080005038B5104BF8
:1027F0000546D3F860310C4603F00303022B0BD0DF
:10280000032B0DD0012B0FD125F094F8092305B12E
:10281000286004B1236038BD23F050FB0823F6E79D
:1028200025F08BF80B23F2E701230020EFE700BF30
:102830000080005038B51A4B0546D3F824010C46E9
:1028400000F00700062821D8DFE800F0280410185F
:102850001C0C140023F0E8FA052305B1286004B12C
:10286000236038BD23F0E0FA0623F6E723F01CFBD3
:102870000323F2E723F018FB0423EEE723F010FB19
:102880000223EAE723F016FB0723E6E7054840F6B4
:10289000E7711CF01FFB00231846DEE70123DCE78D
:1028A00000800050247F0200F7B50027114B0197EC
:1028B000D3F88041064604F00304012C0D4608D0ED
:1028C000022C12D041F20E410B481CF003FB3C4697
:1028D00004E0394601A8FFF741FF0F240EB1019B28
:1028E000336005B12C6003B0F0BD23F0D9FA01903C
:1028F000F4E700BF00800050247F020038B5164B7B
:102900000546D3F800020C4600F00700042819D849
:10291000DFE800F020030B0F130025F00BF809236C
:1029200005B1286004B1236038BD23F0C7FA08233D
:10293000F6E725F002F80B23F2E723F09BFA0E23CB
:10294000800AEDE7054841F2CC411CF0C3FA0023B0
:102950001846E5E70123E3E700800050247F0200EA
:1029600038B5124B0546D3F840320C4603F003034A
:10297000022B0BD0032B0DD0012B0FD124F0DAFF4B
:10298000092305B1286004B1236038BD23F096FA0D
:102990000823F6E724F0D1FF0B23F2E7044841F2C5
:1029A00057411CF097FA00231846EAE700800050D0
:1029B000247F020008B5404B984279D034D83F4B71
:1029C000984272D01ED83E4B98426BD014D83D4BE3
:1029D00098420ED007D820B141F2E3313A481CF0BA
:1029E00079FA002007E0394B984202D0384B9842E0
:1029F000F2D1384B986D08BD374B9842ECD1354B2E
:102A0000586EF8E7354B984232D003F5371303F58B
:102A1000D86398422FD0A3F5B703A3F55863984223
:102A2000DAD12C4B186FE6E72D4B98422ED00FD8F9
:102A30002C4B984222D02C4B984223D0A3F537033D
:102A4000A3F5D8539842C7D1224BD3F88000D2E7E0
:102A5000264B98421ED003F5740303F51053984299
:102A60001CD0234B9842B7D11A4BD3F89000C2E741
:102A7000184B586FBFE7174B986FBCE7154BD3F84F
:102A80008400B8E7134BD3F88800B4E7114BD3F8B0
:102A90008C00B0E70F4BD3F89400ACE70D4BD3F8A4
:102AA0009800A8E70B4BD86DA5E70A4B986EA2E7F4
:102AB000084BD86F9FE700BF002D3101809698002A
:102AC000404B4C0040420F00247F020080841E00D7
:102AD00000093D000080E00FC0CF6A000024F40030
:102AE000006CDC020048E80180D543020090D0036E
:102AF000007E560310B40F4C0B46D4F8204204F06D
:102B00000304012C0ED0022C10D008B1002101606A
:102B10000BB100221A6041F2110107485DF8044B25
:102B20001CF0D8B95DF8044BFFF718BE5DF8044BF4
:102B3000FFF738BE00800050247F0200B0F5207FF0
:102B400010B534D009D8B0F5007F2AD003D898B199
:102B5000B0F5C07F10D0002421E0B0F5607FFAD13D
:102B6000154BD3F88030C3F301149B0617D5032C03
:102B700015D040F29B210FE00F4B1C6F230B13F07D
:102B80000E0FC4F303340AD0072C08D00F2C06D044
:102B9000032C04D040F28B2108481CF09BF9601CE8
:102BA00010BD054BD3F89040C4F30464F7E7024B23
:102BB0001C6FC4F38024F2E700800050247F0200E1
:102BC0004FF400320E4B10B504469A660020FFF712
:102BD000B5FF604341F671320A4C0B4BA04294BFE3
:102BE00000200120D969DA639A6822F4401242EA8F
:102BF00000529A60CA0344BF0022DA6310BD00BFCE
:102C000000900050005A62020000035070B546095F
:102C100004460D460ED140F23B310D481CF05AF9E6
:102C2000334604F01F047DB103F580530122A24016
:102C30001A6070BD012E05D0064B074A022E18BF40
:102C40001346EEE7054BECE703F50053EEE700BF54
:102C5000247F020068800050608200506480005031
:102C6000002130B5B0F5807F85B00446019100F0B9
:102C70000F8100F29F80612800F294801F2805D800
:102C8000002840F0918023F0F5F8DEE0A0F1200468
:102C9000412C00F2898001A353F824F0872C000016
:102CA000532E0000872C0000532E00007D2E0000C4
:102CB0007D2E00007D2E00007D2E0000532E000092
:102CC000532E0000292E0000E32D0000B32E00003B
:102CD000BD2E0000E32D0000532E0000532E0000F7
:102CE000532E0000A92D0000A92D0000A92D0000E1
:102CF000A92D0000A92D0000A92D0000872E00009D
:102D0000052E0000532E0000532E0000532E00000D
:102D1000D12E0000C72E0000532E0000A92D000068
:102D2000A92D0000A92D0000A92D0000A92D00004B
:102D3000A92D0000A92D0000A92D0000A92D00003B
:102D4000A92D0000A92D0000A92D0000A92D00002B
:102D5000872C0000A92D0000872C0000872C000084
:102D6000872C00007D2E0000A92D0000A92D000059
:102D7000A92D0000A92D0000A92D0000A92D0000FB
:102D8000A92D0000A92D0000A92D0000A92D0000EB
:102D9000A92D0000A92D0000A92D0000872C0000FE
:102DA000872C000080284ED040F2AA414B481CF0EE
:102DB00091F84BE0B0F5A06F65D028D8B0F5607FF2
:102DC00052D019D8B0F5007F4ED004D8B0F5C07FEE
:102DD0003FF459AFE8E7B0F5207F3AD0B0F5407F37
:102DE000E2D123F047F804464FF42070FFF7A6FE27
:102DF000B4FBF0F4640835E0B0F5806F3ED0B0F578
:102E0000906FD1D1002101A8FFF714FD1EE0B0F5AD
:102E1000E06F58D00DD8B0F5C06F4AD0B0F5D06F84
:102E20004CD0B0F5B06FBFD1002101A8FFF73CFD39
:102E30000CE0B0F5F06F4BD0B0F5086FB4D101A83D
:102E4000FFF768FC02E022F0F5FF0190019805B061
:102E500030BD23F00FF804464FF42070FFF76EFEEC
:102E6000B4FBF0F40194F1E722F0E4FF05462046BC
:102E7000FFF764FEB5FBF0F50195E7E7002101A837
:102E8000FFF76CFCE2E7002101A8FFF733FEDDE766
:102E90004FF0E02302911B695B0705D522F0EAFFA2
:102EA0000290029B0193D1E703A902A8FFF77AFCE5
:102EB000F7E7002101A8FFF775FCC7E7002101A88B
:102EC000FFF71CFDC2E7002101A8FFF749FDBDE7A0
:102ED000002101A8FFF78AFCB8E700BF247F0200A9
:102EE00008B58020FFF7BCFE034B98429EBF4FF40D
:102EF0008032024B1A6708BD005A620200A00050DF
:102F00001FB503460020B3F5807F019077D026D807
:102F1000382B00F08A800BD8243B092B0FD8092BC3
:102F20000DD8DFE803F0676767670C0C5F0C357D31
:102F3000522B5FD006D83D2B39D03E2B7AD040F2B1
:102F40008F514BE0802BFAD13D4B1B6F03F00703F1
:102F5000013B032B40D8DFE803F03D36393BB3F5A6
:102F6000D06F5DD019D8B3F5A06F5ED00AD8B3F595
:102F7000806F3FD0B3F5906FE1D1002001A9FFF73A
:102F800059FC33E0B3F5B06F2CD0B3F5C06FD6D198
:102F9000002001A9FFF706FC28E0B3F5006FECD094
:102FA0000AD8B3F5E06F45D0B3F5F06FC7D1002074
:102FB00001A9FFF71BFC19E0B3F5086FBFD101A908
:102FC000FFF7A8FB12E0052301930FE00323FBE7C3
:102FD0000723F9E70223F7E740F2DC4119481BF029
:102FE00079FF03E0002001A9FFF75EFC019805B01E
:102FF0005DF804FB002001A9FFF7B0FBF6E74FF0F6
:10300000E02302901B695B0705D522F033FF0C23F8
:103010000393039BD8E703A902A8FFF7C3FBF8E7D4
:10302000002001A9FFF76AFCE0E7002001A9FFF7F3
:1030300061FDDBE7002001A9FFF792FCD6E700BFA6
:1030400000800050247F02004FF48032074B084973
:10305000586E03F580535A660B6A23F001030B6226
:10306000C3035CBF034B5A66704700BF008000502B
:1030700000C0075000A00050F8B5036804460F2BAD
:1030800004D940F694316C481BF024FF63680F2B81
:1030900004D940F6973168481BF01CFFA3680F2B3A
:1030A00004D940F69A3164481BF014FF237B0F2BA0
:1030B00004D940F69D3160481BF00CFF637B0F2B59
:1030C00004D94FF43A615C481BF004FFA37B3F2B0B
:1030D00004D940F6A33158481BF0FCFEE37B3F2B9C
:1030E00004D940F6A63154481BF0F4FE2369032BA3
:1030F00004D940F6A93150481BF0ECFE6369032B5C
:1031000004D940F6AC314C481BF0E4FEE369012BD6
:1031100004D940F6AF3148481BF0DCFE8020FFF7B1
:10312000EFFE032800F087804FF40022434B02217A
:103130005A6645F60E03424AC2F88030414B996206
:10314000012103F580539962936DD903FCD4D4E92E
:1031500000131B0543EA0163E17B94F820500B4305
:10316000217BE77E43EA0143617B6D0143EA013342
:10317000A17B43EA811313619169D4E904031B061F
:1031800043EA806301F000410B43A17E94F82300E1
:103190000B43217E43EA0143617E43EA01239361AD
:1031A000136AE66923F00D0394F8221043EA8703BB
:1031B000002E2DD11362966A94F8213045EA03134C
:1031C00026F033052B4343F0010393621E4D1C4B45
:1031D0009A6D35EA0202FBD102221A4DAA621A65E3
:1031E0009A6D5200FCD41A69A56822F4700242EA72
:1031F00005521A614FF00042124B9A6119B902222E
:1032000003F580539A6278B90122104B9A620BE061
:10321000334343F008031362936A23F033030343F9
:103220002B4343EA4103936294F824301BB1044BCF
:10323000074AC3F88020F8BD247F020000900050A8
:1032400000C0005000D000500300014000E00050DA
:10325000F1A7FFFF014B93F900007047C42F002036
:10326000014B1880704700BFD03700204FF4001288
:1032700008B5184B5A660223174A5360936813F433
:103280008033FBD1012822D122F00EFE134B98424D
:1032900015D003F5122303F5F863984213D0104BB1
:1032A00000EB8002400AB3FBF0F3520A0A49CA62FB
:1032B0000B6301234B620022074B5A6008BD45F6A1
:1032C0007A13084AF2E745F61A03074AEEE7536213
:1032D000F1E700BF009000500040025000F04902AA
:1032E00064666666D8B80500BBCF0500B0F5207FE0
:1032F00010B565D00ED8B0F5007F4FD003D800B31D
:10330000B0F5C07F1DD040F21E31BDE810403448FA
:103310001BF0E0BDB0F5607FF5D14C1E012C06D945
:10332000042904D040F2FE212D481BF0D3FD2D4A84
:10333000D2F8803023F0300343EA0413C2F880301F
:1033400010BD4C1E012C0AD9102903D8264BCB40A6
:10335000DB0704D440F2CF2121481BF0BBFD1CF059
:1033600041FB1CF04DFB4FF48031204B1D4A196787
:10337000136F23F4704343EA0433136722F07AFD9A
:103380000446FFF7BBF9C0F1020120461CF032FBF6
:1033900000F046F8BDE81040FFF7A2BD4C1E1F2C00
:1033A00004D940F212310E481BF094FD0D4AD2F8B8
:1033B000903023F0F85343EA0463C2F89030BFE73B
:1033C0004C1E012C04D94FF4467105481BF082FDB8
:1033D000044A136F23F4806343EA84231367AFE73F
:1033E000247F020000800050100101000090005076
:1033F00008B50121022000F049FB4FF42070FFF7CF
:103400009DFB054B18701CF0EDFA1CF0F9FA4FF417
:103410008032024B1A6708BDC32F00200090005075
:1034200008B54FF4C070FFF71BFCBDE80840044925
:10343000884294BF012102214FF42070FFF756BF4C
:1034400080F0FA0238B5044622F014FD0546FFF775
:1034500055F9C0F1020128461CF0CCFA01210020E8
:1034600000F068FB2CB1FFF7DBFFBDE83840FFF749
:1034700037BD034B4FF420701978FFF737FFF4E79F
:10348000C32F0020B0F5807F70B50C4600F00C8192
:103490002BD8382800F0C48110D82438092816D831
:1034A000092814D8DFE810F0E300E300E300E300AC
:1034B00013001300CE00130046008401522800F0D0
:1034C000D68007D83D2851D03E2800F0C28140F672
:1034D000691123E18028FAD18B1E052B00F2A78009
:1034E000DFE803F0A293A5ADA566B0F5D06F00F0BC
:1034F0005F8130D8B0F5A06F00F0928113D8B0F59D
:10350000806F00F0B480B0F5906FE0D1013C062CE4
:1035100000F24581DFE814F048013B014A01410116
:1035200031013F013D01B0F5B06F00F08B80B0F587
:10353000C06FCCD1013C0A2C00F20181DFE814F00D
:103540000401FF00FF00FF00FF00FF00FF00060175
:10355000F300F300FD00B0F5006FD7D017D8B0F539
:10356000E06F00F07681B0F5F06FB0D1013C0A2C2D
:1035700000F2FA80DFE814F0FD00F800F800F8002F
:10358000F800F800F800FF00EC00EC00F600B0F5E1
:10359000086F9CD14C1E072C00F23981DFE814F033
:1035A0003C0137012B0137013701370135013E015D
:1035B000002504260121022000F068FA1CF012FA0E
:1035C0001CF01EFA4FF48031A94BAA4A1967136FF9
:1035D00023F007033343136722F04CFC0646FFF742
:1035E0008DF8C0F1020130461CF004FA01210020E0
:1035F00000F0A0FAFFF714FFFFF772FC25B9032CC7
:1036000002D101229C4B9A6270BD4FF40022984B6C
:103610000E465A66012203F540539D6A03F5805316
:10362000C5F340059A62C5E700250126C2E70025DB
:1036300040F2516191481BF04DFC2E46BAE700253F
:103640000226B7E7022C07D00F2C0ED040F29A6169
:103650008A481BF03FFC0024864AD2F8803123F0D0
:1036600003032343C2F88031CEE70124F4E7013C91
:10367000042C10D8DFE804F0140D160F030001220B
:103680007C49D1F8203123F003031343C1F82031E2
:10369000BAE70322F4E740F2D96178481BF01AFC3C
:1036A0000022EDE70222EBE7A1F10804082C33D851
:1036B000DFE804F0050532051C32323205004FF414
:1036C00080326C4B6E49586E03F580535A660B6A14
:1036D00043F001030B62C1035CBF6A4B5A664FF0B3
:1036E000E022136923F0040313618DE74FF4803265
:1036F000604B6349586E03F580535A660B6A23F09A
:1037000001030B62C3035CBF5E4B5A664FF0E022BD
:10371000136943F00403E7E740F20171BDE870402C
:1037200056481BF0D7BB01225249D1F8403123F053
:1037300003031343C1F8403166E70322F4E740F284
:1037400021714E481BF0C6FB0022EDE70222EBE799
:1037500001224849D1F8603123F003031343C1F833
:10376000603151E70322F4E740F2437143481BF014
:10377000B1FB0022EDE70222EBE701233D49D1F83E
:10378000242122F007021343C1F824313CE703232C
:10379000F4E70423F2E70523F0E70623EEE740F21F
:1037A0006C7136481BF096FB0023E7E70223E5E740
:1037B000013C0D2C16D8DFE804F01A151515151567
:1037C000151C07071115151301222A49D1F80032DB
:1037D00023F007031343C1F8003215E70322F4E78F
:1037E0000422F2E74FF4F26124481BF073FB00223D
:1037F000EBE70222E9E701221E49D1F8003123F06C
:1038000003031343C1F80031FEE60322F4E74FF44B
:10381000FA611A481BF05EFB0022EDE70222EBE79B
:103820000F2C12D0102C12D0012C04D040F62B01FA
:1038300012481BF04FFB00220E49D1F8203223F032
:1038400003031343C1F82032DEE60122F4E702222B
:10385000F2E7083C032C19D80B4B195D054AD2F846
:10386000403223F003030B43C2F84032CCE600BFE2
:10387000009000500080005000E00050247F0200C3
:1038800000C0075000A000508F7F020040F6B30137
:1038900002481BF01FFB0021E0E700BF247F02006D
:1038A0002DE9F0410546FFF785F8431E0333044632
:1038B00004D940F6EC113B481BF00CFB4FF4C0223E
:1038C000394B5A6603F598335A68012A04D13749AF
:1038D0004A609A699207FCD18020FFF711FB052806
:1038E00007D11CF07FF81CF08BF84FF480322E4B80
:1038F0001A672F4B24F040749D4239D02D4B9D42C6
:1039000039D022F091FA8542064603D90121284692
:1039100000F010F9284FFB6813F0060FFBD1D7F821
:103920000880BC60BB68634013F4F81F26D12846AA
:10393000FCF780FF8020FFF7E3FA052814D122F07E
:1039400099FAA842044604D940F6452115481BF0CF
:10395000C1FAFEF7D3FEC0F1020120461CF04AF87E
:10396000FFF75EFDFFF7BCFAAE4213D2BDE8F0816F
:1039700044F00074C5E744F08074C2E740F6342197
:1039800008481BF0A7FA8020C7F80880FFF7B8FAAC
:10399000052805D0BDE8F0410121002000F0CAB89B
:1039A0003546CCE7247F02000090005000E0015033
:1039B00040420F0080841E000000015010B5224BD1
:1039C00070B94FF40031214A1860516602F59832FF
:1039D0005268012A03D11E4AD2F800211A6010BD94
:1039E0001B68002BFBD01B4A5268012AF7D0184AEB
:1039F0008020C2F80031FFF783FA05281FD14FF469
:103A0000C070FFF79BF80128044604D102214FF44F
:103A1000C070FFF76BFC07220F4B1A610122A3F560
:103A200080535A600B4A1369DB07FCD5012CD6D1B1
:103A30002146BDE810404FF4C070FFF757BC01228B
:103A4000064B5A60CBE700BFF41C002000900050EA
:103A50000080005000C0015000E0015000D0015033
:103A6000044A4178536F23F4407343EA01235367B8
:103A7000704700BF00400050034A0179D36E23F025
:103A800030030B43D366704700400050F8B504463E
:103A9000244BD3F88420D006FBD4D3F88430C3F36E
:103AA00081139C423CD022F0C5F9012C05460BD174
:103AB0001D4B984204D940F29D711C481BF00AFA34
:103AC000012128461BF096FF23F041FF4FF00072C2
:103AD000174B07465A6620461BF09CFF4FF4806345
:103AE000104E621E93403367736E9A0103D4D6F86A
:103AF00084309B060AD5384623F024FF022C0FD1D0
:103B00002846BDE8F84000211BF074BFD6F8843089
:103B10009906E9D540F2B57104481BF0DBF9E3E7FB
:103B2000F8BD00BF00400050005A6202937F0200BF
:103B30000060005010B50C4608B922F07BF9074B25
:103B400021461B783BB1064B984204D80120BDE8C2
:103B50001040FFF79BBF0220F9E700BFC52F0020F0
:103B6000005A62020278034B012100201A70FFF70D
:103B7000E1BF00BFC52F00204FF0004238B5264BF3
:103B800026495A6601224A604AF6CD3103F50B23D5
:103B90005D6C1964154030BB9968C9070BD40024CB
:103BA00001221F4B5A6015B11E4B1F4A1A641FF0A9
:103BB0001DF9204638BD1A498A601C4AD96ACC07CB
:103BC00005D4904201D10724EAE70130F6E790429C
:103BD000E5D1F8E70132DC6A14F0080406D08A4225
:103BE000F8D10724DFE700221049F4E78A42F8D031
:103BF00020220B4B0B495A620122A3F580539A6095
:103C000023460A4A486A800603D49342E9D0013326
:103C1000F8E79342C7D1E4E7009000500050095004
:103C200000600950004009503254FFFF40420F002D
:103C30004AF6E8531F4C80B51F4FE56EE66E2366CB
:103C400023F07EFEFFF7D4FB3B6F012023F0070338
:103C500043F001033B67FFF7F5FB0020FFF78CFF04
:103C60001BF0D6FE1BF0D5FE7B6E25F003055A0136
:103C700044BF124B124A45F0020548BFC3F8202446
:103C800046F003060F4BE566E666E566E666E56622
:103C9000E666E566E666E5665B6A1B0604D540F205
:103CA0003D6109481BF016F9BFF34F8FBFF36F8FCB
:103CB00030BFFEE7004000500080005000E003509D
:103CC0000000FF0F00400950937F02004FF00042B8
:103CD00038B5174B174C5A66012203F50C235A606E
:103CE0004AF6CD33656C2364437893401343124AFC
:103CF000D363C3788178A2689B0043EA011322F062
:103D000074021343A3600279837943EA0223236197
:103D10004279C37943EA022363610078FFF72CFFFD
:103D2000EB0744BF054B23641FF060F8012038BD4A
:103D30000090005000400950004000503254FFFFF6
:103D4000064BDFED077AD3F88830C3F30A0300EEA1
:103D5000103ABAEECF0A30EE670A704700400050C2
:103D600033938843032838B504460D4604D80B4BDB
:103D70001B5CCB40DB0704D440F2854108481BF0B4
:103D8000A9F830220123544341F2100204F1A04467
:103D9000AB4004F57034A35038BD00BFD68002009C
:103DA000FE7F0200032838B504460D4604D80B4BAD
:103DB0001B5CCB40DB0704D440F2564108481BF0A3
:103DC00089F830220123544342F2100204F1A04446
:103DD000AB4004F57034A35038BD00BFD68002005C
:103DE000FE7F02000328F8B504460D4616461F461E
:103DF00004D81C4B1B5CCB40DB0704D44FF4B071E0
:103E000019481BF067F826B129462046CFB1FFF7C5
:103E1000A9FF04EB4403072D4FF00F014FEA0313F2
:103E200012D8A80006FA00F28140104818441BF08E
:103E3000F2FDAEB92946204677B1BDE8F840FFF75C
:103E400091BFFFF7AFFFE4E7A5F10800800006FA95
:103E500000F281400648E9E7BDE8F840FFF7A2BF5D
:103E6000F8BD00BFD68002006A80020004C0035083
:103E70000CC0035038B5124B044698420D4604D08E
:103E80004FF427710F481BF025F8012204F58053E9
:103E900061685A60EB786A785B0443EA02232A7807
:103EA0001343AA78120402F480321343C4F8983002
:103EB000CB0704D42046BDE838401BF0BBBD38BD5D
:103EC0000040005ADA8002001E4B70B5984204464A
:103ED0000E46154604D04FF419711B481AF0FAFF2C
:103EE00020461BF0A7FD3378727803F0070343EAFE
:103EF000C203F278294643EA0223B278204612012F
:103F000002F0300213432367E26A337922F48B32E2
:103F10001B0222F4807203F4E0631343B27943EA94
:103F200002437279120302F480521343E362FFF7F3
:103F3000A1FF012204F580535A60F37903B1E260D6
:103F400070BD00BF0040005ADA8002002B4B10B554
:103F50009842044604D040F2193129481AF0BAFFB9
:103F6000012204F580535A60264B274AE3606369B7
:103F70001340FCD1A361C4F89830636913F4401F67
:103F8000FBD16369DA052DD4A36F5BBB63699B0525
:103F90002AD4D4F888203ABB2046E36FD4F88C307A
:103FA0001BF048FD3023A2602261E2622262236797
:103FB000C4F88030114B9C4208D142F26001134B8F
:103FC000A16423656265A165236662660B4B9C4212
:103FD00002D10021102A0AD10D4B04F5005463626E
:103FE000A36210BD636FCCE7D4F88430CEE702F152
:103FF000280043F820100132ECE700BF0040005ACF
:10400000DA800200120002005200010000C00280AB
:104010008F330F80144B10B598420C4604D040F2F9
:104020006F3112481AF056FF74B92A20FEF718FEB5
:104030000446B0B10E4B984206D90B4B9B68C3F3B4
:1040400002730133B0FBF3F40A4B04F5742404F259
:104050003F24B4FBF3F4601E7F2828BF7F20C0B24A
:1040600010BD0124F0E700BF0040005ADA800200D2
:10407000005A620240420F0038B5154B0D46984277
:10408000144604D040F2AA3112481AF023FF35B981
:1040900040F2AB310F481AF01DFFB4B1FFDE0E4BFA
:1040A0009D4228BF1D461CB92A20FEF7D9FD0446B3
:1040B0002C44013CB4FBF5F0AC4228BF00F1FF30CA
:1040C000032828BF0320C0B238BD2546ECE700BF57
:1040D0000040005ADA800200005A6202F8B51F461A
:1040E000174B0E469842144604D04FF47971154888
:1040F0001AF0F0FE26B940F2E53112481AF0EAFE55
:10410000114D124B002F08BF1D46B54228BF354642
:104110001CB92A20FEF7A4FD04469DF8183040F291
:10412000FF300133B4FBF3F46B1E1C44B4FBF5F316
:10413000AC4228BF03F1FF33984228BF1846F8BDB0
:104140000040005ADA800200404B4C0080969800F4
:104150002DE9F04F2DED048BD04B054698420E46CD
:10416000144685B003D0EC21CD481AF0B3FEDFF839
:104170005883002241462846FFF77EFF7779874221
:1041800038BF074628461BF055FC3079FFB250B9BE
:104190002A20FEF765FD4045014628BFB0FBF7F138
:1041A0002846FFF737FFF3783A071B0102F0E04299
:1041B00003F0300313430004327800F4FE0003439D
:1041C0000AB143F0020372780AB143F00403B278F3
:1041D0000AB143F00803AB60F38832892B6173891D
:1041E00043EA02432B62AD4B9D4200F05481012310
:1041F00005F580556B6005B0BDEC048BBDE8F08F14
:10420000DCF88021BAF1000F0CD11FFA82FBDFED40
:10421000A57A1CE0DCF880214FEA124BBAF1000FBE
:1042200000F0078140F2F1119D481AF053FE78E04A
:10423000DCF88421BAF1000FF4D1DCF88C311FFADC
:1042400082FB1B145B0007EE903AF8EEE77A01F16F
:10425000B44101F580418A6C0121C2F3820202F16E
:10426000010C01FA0CF107EE101A2BF4C0434FEACF
:10427000834A1BF4004FB8EEC79AF6EE008A8A4BC9
:1042800018BF4AF0004A002A40F0D780D3F88C11BA
:104290000BB208EE103AB8EEC88A38EE278A00282A
:1042A00040F0E28003A800F0B3F9DFED807A9FEDE3
:1042B000807A27EE888AC7EE097A9FED7E7A67EECC
:1042C000877AB1EE007ABAF1004F48EE077A0BD048
:1042D000DFED796A07EE10BA37EEA66ABAEEE87A31
:1042E000F0EE667A57EE067AF5EEC07AF1EE10FA45
:1042F000CBBFF1EE677A78EEE78A77EEE87AFDEEEB
:10430000E87AC8BFFDEEE77A17EE902AB2F5003FD3
:10431000C0F2B7806FEA5A436FEA43435F49320104
:104320008B50360106F1B446C8F3090306F5804602
:10433000736009F101091434B9F1020F3FF457AF6A
:10434000002294F800A0554E5C485D49D4F80880DE
:10435000924518BF0146534630460097FFF7BEFE10
:1043600006EB0916B26C0AF0030C22F0435222F459
:104370001D1222F4405222F01F024CEA020C627815
:104380001FFA88F8920002F01C024CEA020CA27894
:10439000804538BF80461203E07802F4E0424CEAE0
:1043A00002024FEA004C0CF4E02C42EA0C0294F8B2
:1043B00010C04FEA09114FEA4C5C0CF4600C42EA61
:1043C0000C0294F804C04FEA0C7C0CF0405C42EA0A
:1043D0000C02B264B26CDFF8D0C0C2F30232013A10
:1043E00009F10506042A1BD80FF2040E5EF822F02C
:1043F000014200000142000015420000314200006D
:1044000005440000DCF88421BAF1000F7FF40AAF04
:10441000DCF88C314FEA124B1B1403EB430312E719
:10442000DCF880211FFA82FBBAF1000F3FF4EFAEF7
:10443000F8E6DCF88C311B1405E7D3F8901169EE2F
:10444000286A09B207EE101AB8EEC77AD3F88811B5
:1044500077EE677A0BB208EE103A87EEA67AB8EEDE
:10446000C88A38EE078A1AE7D4ED037ADFED156AB9
:10447000F8EE677A87EEA67AF7EE046AC6EE877AD8
:1044800015E712F5003FAABFC2F311024AF4003348
:1044900042EA0A0342E74FF000094DE70040005AA4
:1044A000DA800200000000000080E00F3D3B843F06
:1044B000000080430000204400000049404B4C00B5
:1044C0008096980000007A44005A62024FF400324D
:1044D000054B9A6641F6713203F51C33DA6301220B
:1044E00003F50053DA6070470090005041F67132D6
:1044F0000121064BDA6303F50052D1600022DA6332
:104500004FF40032A3F518339A6670470000035049
:10451000044B1868421C02BF034AD2F8940018608A
:10452000704700BF9C34002000400050022838B57E
:1045300005460C4603D94C210C481AF0CBFCE37815
:10454000627821785B0143EA820322790B4343EAD4
:1045500002130C226A4302F1B0421363012902BF25
:10456000A278034B43F8252038BD00BFB18102007B
:10457000E880035008B54FF0B0435A686AB958B1A3
:104580005B680BB11BF085FA01210D4B59601BF0E4
:1045900080FA4FF0B043D96008BD5B680BB11BF0E7
:1045A00078FA0028F0D11BF074FA4FF0B0430222E1
:1045B000DA601BF06EFA0122024B5A60ECE700BF92
:1045C00000100058002000584FF0B0414B6810B563
:1045D0000BB11BF05EFA01220B4BC4785A60837852
:1045E000934043EA840344782343047943EA041361
:1045F000447943EAC4038B60044B5A600378C3F1E7
:104600000203CB6010BD00BF00200058001000580E
:104610004FF48032064B5A6603F5E6235B69C3F319
:104620008512827003F03F021B0B427003707047CB
:10463000009000500120034B9B680A3303F01F03D6
:10464000984070470080E00F10B5044620B94FF441
:104650000D7112481AF03EFC2378E3B1013BDBB246
:10466000022B05D80E4AD35C6278D340DB0704D412
:1046700040F2372109481AF02DFC01226178237895
:104680008A4030214B4342F2100103F1A04303F56D
:1046900070335A5010BD7F23E6E700BF1D82020031
:1046A00007830200034BD3F82424D3F820041040DE
:1046B000704700BF00C003502DE9F0410378044665
:1046C0000D4617460BB3013BDBB2022B05D82B4A34
:1046D000D35C6278D340DB0703D45D2128481AF00D
:1046E000F9FB284BD3F810331BB1602124481AF092
:1046F000F1FB0F2D0BD8DFE805F0322D2D2D2D2DE0
:104700002D2D2D2D2D2D2D2D2D2D7F23E1E7B421A8
:104710001B481AF0DFFB4FF000082046E7B121F0FC
:10472000DDFB63782678072B06EB46064FF00F017A
:104730004FEA061615D89B00134808FA03F2994071
:1047400030441BF0AEF9BDB920468FB1BDE8F04151
:1047500021F0C4BBA846E0E7FFF776FFE1E7A846F3
:10476000DFE7083B9B00094808FA03F29940E7E7B6
:10477000BDE8F041FFF768BFBDE8F08107830200A4
:104780009282020000C0035004C003500CC00350CA
:104790000A4B1B68C3F30743012B0ED1084B0420BF
:1047A0005A6E4FF480230749520358BF064A4B669E
:1047B00001F51041086258BF536670470080E00F52
:1047C000008000500090005000A0005030B58BB029
:1047D0006C46544D0FCD0FC40FCD0FC495E80300A8
:1047E00084E80300504BD3F84C21120300F183807E
:1047F000D3F85041E4B28DF81940FEF72BFD044484
:1048000084F3080449488DF81840FCF719F8684605
:10481000FEF732FC3220FEF723FD4548FFF740F853
:10482000444823F0ACF820B14FF4EB7142481AF041
:1048300051FB424C0020FEF719FDFEF7D9FD236F16
:10484000002023F0070343F003032367FEF7FAFD7C
:10485000236F3B4923F4744323673A4BD3F8FC207E
:1048600012F080724DD1C1F88020344BD3F8202152
:1048700022F0030242F00202C3F82021D3F82421DF
:1048800022F0070242F00202C3F82421D3F880216B
:1048900022F0030242F00102C3F88021D3F8402144
:1048A00042F00302C3F84021D3F8602142F0030232
:1048B000C3F86021D3F8402242F00302C3F840223B
:1048C000D3F8002222F0070242F00302C3F80022CC
:1048D000D3F8202222F0030242F00102C3F8202282
:1048E000FEF7B2FB4FF0E0220020136943F004030F
:1048F00013610BB030BD144B1C88FF2C88BF79248A
:1049000079E7D3F8FC2022F08072C3F8FC20002263
:10491000C1F88020D3F8FC2042F08072C3F8FC205C
:10492000A3E700BF948402000080E00F00F049027A
:1049300000B4C404C8840200018402000080005056
:104940000090005000ED00E00001E00F07B56B465D
:10495000054A1068516803C36846FFF7B7F900209D
:1049600003B05DF804FB00BFBC840200402810B512
:10497000044608D801236109074A04F01F04A34034
:1049800042F8213010BD40F2351104481AF0A2FA65
:10499000002CF7DBEEE700BF00E100E0E08402005E
:1049A0003F2810B5044604D94FF4A07106481AF008
:1049B00091FA064B621153F8220004F01F04E04004
:1049C000C04300F0010010BDE084020000E100E0FF
:1049D000002808DB01224309034900F01F00824040
:1049E000603341F82320704700E100E038B500F162
:1049F0001003502B04460D4604D940F2E5110E4831
:104A00001AF068FA0F2D04D94FF4F3710A481AF01E
:104A100061FA60B20028ACBF00F16040074B4FEA7A
:104A20000515EDB2ABBF00F5614000F00F0080F856
:104A300000531D5438BD00BFE084020014ED00E0B7
:104A400010B522F091FF0A4B1A786AB901226FF073
:104A500004041A7022F083FF204605210134FFF779
:104A6000C5FF402CF8D110BDBDE8104022F077BF43
:104A7000C62F002013B50A4C684600F027F92378AA
:104A800063B9DDE900010222064B00F055F901236C
:104A9000054A137000B9237002B010BD1220FBE765
:104AA000C72F0020F81C00200A3800202DE9F04F05
:104AB0009946531C05460E46174687B037D180B33A
:104AC00008244FF00008784BCDF8148083F800805C
:104AD000109B002B00F0E080C3F80080002E00F057
:104AE000DD806B68B34240F2D98022F03DFF07368B
:104AF00005AA09F0010926F00706CDE900828246E1
:104B00003A464B46314628461BF03EF9059F834600
:104B100007B1F8B9504622F022FF192007B0BDE8CE
:104B2000F08F40F2053161481AF0D4F9C8E7531EFE
:104B3000B3F5007F01D21A4204D04FF440715B48B4
:104B40001AF0C8F925B940F2053158481AF0C2F9EF
:104B50003C46B6E7B7F8028029694FEAC802C0EBC5
:104B6000C8080139B8F1270F29617AD9B9F1000FC6
:104B700051D1864206F1080848D0224639462846D7
:104B80001AF0A6FF04460590059B984440461BF08A
:104B9000F7F8059906F10F004A88C308A2EBD00286
:104BA000A8F80220CA88A8F80430002A30D0D31A06
:104BB0009BB201EBC202A8F8063093808B88F608FE
:104BC000A380B8F804303A46E380414600232846E3
:104BD00066801BF024F9AB680833AB60237843F0A0
:104BE000010323702B6901332B616288AB68504647
:104BF00003EBC203EA68AB60934288BFEB6022F02C
:104C0000AEFE109B083400201C6087E73C46BBE7E3
:104C1000A8F80620D2E707EB0804204603921BF011
:104C2000AFF80BF10703DB080599638008F1070370
:104C3000DB08A380CB8893B1DB00039AD81D821ACE
:104C40005A44C2F3CF020B44E2809A80A38808F151
:104C5000FF384FEAD808A1F80280CB80BBE7E38099
:104C6000F4E7B9F1000F1BD007F10803B3FBF4F22E
:104C700004FB1233B3B12246394628461AF028FF06
:104C8000044623783A4643F001032370214601236A
:104C900028461BF0C4F8A8E722203FE721203DE783
:104CA0008642E8D13C46ECE70A38002075850200D0
:104CB00007B5009313460A4601460348FFF7F6FE80
:104CC00003B05DF804FB00BFF81C00200249034A52
:104CD0000160521A4260704768380020008000204E
:104CE00038B503690D4614460BB33AB999B904684F
:104CF00024B940F23B110F481AF0ECF82378D90799
:104D000007D555B9E38893B104EBC3042378DA07D8
:104D1000F8D4204638BD8469EAE7012D07D1A3887D
:104D20002BB1A4EBC3042378DB07F8D4F1E700240C
:104D3000EFE700BFFC850200F8B50D4617461C469C
:104D4000064618B111B1082A00D823B94FF4C6712C
:104D50000E481AF0BFF800213046C4E90065C4E9E6
:104D60000211C4E905662161277761621BF008F82A
:104D70002369013DED08013375802361A36808466E
:104D80000833A360E3680833E360F8BDFC850200E4
:104D900038B54160044622F0DAFD05462146044854
:104DA000FBF75EFD2846BDE8384022F0CBBD00BFD2
:104DB000201D002001481AF08EB800BF201D0020E1
:104DC0000222014B1A6770470040005070B522F074
:104DD000BEFD124D0446124822F0D1FD2E7886B950
:104DE000FFF7E8FF22F063FE0E4B1E6021F0E8FBA8
:104DF0000D4B0E4A1860536F23F0010353671BF0ED
:104E000044F800F097F81BF057F8094B186001239D
:104E100020462B7022F096FD002070BDD12F00207F
:104E2000CC840200241D00202C1D002000400050D6
:104E3000281D002070B5044622F089FD1D4E054650
:104E40003378FF2B13D14CB340F2EB111A481AF010
:104E500041F83378FF2B1AD0184B1B78022B04D95A
:104E600040F2F71114481AF035F8012317E02BB17E
:104E7000124B1B78022B0FD884B1F6E7002CEBD134
:104E800040F2F1110C481AF025F8337833B928466E
:104E9000BDE8704022F056BD002CE1D1FF233278EE
:104EA0001344DBB23370B3FA83F3054A5B09137022
:104EB000EDE700BFCE2F002021870200D02F002079
:104EC000CD2F0020054B1B685843054B00F574207F
:104ED00000F23F20B0FBF3F0704700BF2C1D002014
:104EE00040420F0073B5114E0446337883420FD011
:104EF0004FF400730E4DADF8043058B101A8FEF721
:104F0000AFFD4020FFF7DEFF2B68181A28603470D1
:104F100002B070BD8DF8050001A8FEF7A1FD40208C
:104F2000FFF7D0FF2B681844F0E700BF0B380020D4
:104F3000641D002073B5002401A88DF80440FEF71D
:104F400011FE2046FFF7CEFF2E4B2F4AD3F800313B
:104F500003F0030313604FF400222C4B5A664FF406
:104F600000325A6621F018F94FF4C870FFF7AAFF13
:104F7000274B284A1860284913680134E4B20A2CE8
:104F800041F8040BF9D1034400EBC0000344136063
:104F9000224B234D1B786BB31A4BD3F8003103F02F
:104FA0000303022B1CD0032B1DD0012B1ED120F09C
:104FB0007BFF0246F0B11B4B1B4EDC6800231946F9
:104FC000C4F30B04013404EB84040138E4FB060150
:104FD00006F0C2F9FFF776FF2B6803442B6009E067
:104FE00020F06CFFE5E720F065FFE2E7F2210F48D3
:104FF00019F070FF1F20FFF765FF2B6803442B603B
:1050000002B070BD00800050701D00200090005064
:10501000301D0020341D0020381D0020D42F00201A
:10502000641D002000C0015040420F00B187020003
:105030000122014B1A707047D52F002070B522F065
:1050400093FC144E05463478FCB9134B1C60134B8B
:105050001C60134B1C6000F02BF8012021F020FC99
:1050600021F00EFC0F4B0246186020B9284622F0B2
:1050700076FC232070BD234640F2E7310A4806F053
:105080006BF90A4B186001233370284622F067FC45
:105090000020EFE7D82F0020841D0020801D002075
:1050A0008C1D0020881D002018FCFFFF7C1D0020A7
:1050B0001FB500241A4B18689A880290D3F806008E
:1050C0009B7A00901748ADF80C208DF8043022F040
:1050D00056FC8DF808401AF037FF8DF80C0002A836
:1050E000FFF772FA694601208DF80040FFF71EFABB
:1050F00040F2FF320C4B9A615A614FF0B042936A12
:1051000013F00803FBD113620120FFF733FA0C20E0
:10511000FFF75EFC0C20FFF729FC04B010BD00BFB8
:10512000C7880200C48402000020005810B522F095
:105130001BFC4FF0B04304465B695A06074A03F074
:10514000010003F0510348BF40F00200536121F019
:10515000C1FA2046BDE8104022F001BC00200058F2
:1051600021282DE9F341054604D82C46204602B0FB
:10517000BDE8F08100240B4E0B4FDFF83080002398
:10518000CDF800801A46194638681AF037FA84427A
:10519000EBD2222CE9D056F8043BAB42E6D00134E6
:1051A000EDE700BFE88B020098340020FFFF0F00FE
:1051B0002DE9F04F644E654D89B01AF0FCFE316860
:1051C0002868FCF7D5FC0446002827D03368002463
:1051D000D3E900019A6912689047336804A89B6973
:1051E0009B689847336802209B69DB689847326860
:1051F00005985368E7B2B3FBF0F3BB42916904F141
:1052000001044ED8CB680020984733689B695B68DF
:10521000984731682868FCF7ABFC04460027DFF8A4
:1052200044A1DFF84481DFF84491F4B9484B286881
:10523000DB5D002B00F08380D8F8006002AB3146C4
:1052400003AAFCF7DDFD2D2807D070B9039B012BC5
:105250000BD031462868FDF71FF8DAF800303146E8
:105260001A682868FCF798FF04460137222F0AF1D4
:10527000040A08F1040809F10109D6D1B4FA84F34B
:10528000344A5B0913702B681B7C33B11AF05FFE44
:1052900018B1DB21304822F049FC204609B0BDE8B6
:1052A000F08F12680B6907FB002098479FE7D8F83A
:1052B000003003AA194402AB0191FCF7A1FD2D288F
:1052C000034601992BD0286813B30BF1010B5FFA49
:1052D0008BF1B1422868EAD3204BDB5D002BC4D0B0
:1052E000F3B27E2B2868C0D8D8F8003003AA06EBAA
:1052F000030B594602ABFCF783FD2D28B5D0594668
:105300002868FCF7C9FF013604460028E8D0ACE75E
:10531000039B7BB999F80020029B9A42D5D099F85B
:105320000030DAF800202868FCF73AFE0028CCD0DC
:105330000446D1E70191FCF7AFFF0199EFE7084B75
:10534000A346DE5DC3E700BF783400209834002018
:10535000C48B0200DA2F0020708C0200A28B0200A6
:105360005E8B0200D4880200E88B0200808B020072
:105370002DE9F0419846264B04461B780E46174609
:1053800063B1030B03F0FE038E2B07D1214B1B7877
:10539000002B31D100242046BDE8F0812046FFF7E4
:1053A000DFFE2128054615D81B4B53F82040194B2A
:1053B0001B78002BEED0194B1868194B5B5DDBB1E5
:1053C00021463A68FCF7E8FE04460028E2D01AF0CD
:1053D000BDFDE0E7FF2805D94246394680B21CF002
:1053E000DAFED7E74FF4A9710E4822F09FFB094B74
:1053F0001B78002BCED000247F2E08BF0026074844
:1054000043463A4654FA86F10068FCF7C9FDDBE7EB
:10541000D92F0020DA2F0020E88B020098340020DA
:10542000C48B0200708C020008B552081AF091FD7E
:1054300030B1BDE808404FF49C71024822F076BBC1
:1054400008BD00BFFC8C02002DE9F743C7070546E5
:105450000E46144604D54FF4F271494822F066FB1B
:10546000E10704D540F2E511454822F05FFB454BCA
:1054700093F80080B8F1000F20D043F260239D42E2
:1054800008D12246314640481DF08EFC002003B072
:10549000BDE8F083C5F30B0705F44055B5F5805F13
:1054A00014BF4FF40F204FF40E20234632467F21C5
:1054B000384303B0BDE8F043FFF75ABF05F470432B
:1054C000B3F5805F3FD1C5F30B05304A05F17E652A
:1054D000631E2B44934230D82F46DFF8A49007EB8D
:1054E0000408474542D1AA070ED04FF6FF7336F89D
:1054F000022BA81E43EA024304220DEB0201019392
:10550000FFF792FF0235023CA3070ED0023C24F0C5
:105510000103F35A04226FEA03436FEA13430DEBCE
:10552000020128190193FFF77FFF002CAED022461D
:1055300031462846FFF778FFA8E74FF4FF7110487F
:1055400022F0F4FAC8E705F46043B3F5005F04D134
:10555000C5F30B0505F5FC25BEE740F2062108481A
:1055600022F0E4FA6FF00F074546B6E717F8013B63
:10557000FF2BB6D040F21121484622F0D7FAB0E70F
:10558000FC8C0200D92F0020D2370020FF03E00F4F
:1055900010B500F077F81AF028FD044618B100F0B5
:1055A00079F8204610BD00F07BF804460028F6D1BB
:1055B0000122014B1A70F2E7DB2F0020054B1B780C
:1055C00033B1054BC0F3130100221868FCF728BE65
:1055D00011207047DB2F002098340020144B2DE958
:1055E000F0411B7805460E461746FBB11AF0E4FC65
:1055F000012805D9841EE4B2012C09D9212412E026
:105600003B4631462846BDE8F041002200F052B842
:1056100000F038F83B4600223146284600F076F884
:10562000044600F037F82046BDE8F0811124FAE77F
:10563000DB2F0020124B70B51B7804460D46164632
:10564000E3B11AF0B9FC012805D9831EDBB2012BA6
:1056500008D9212410E0324629462046BDE8704092
:1056600000F040B800F00EF82046324629461AF005
:10567000BEFC044600F00EF8204670BD1124FBE786
:10568000DB2F002008B522F062F9014B186008BD3D
:10569000901D0020014B186822F054B9901D002085
:1056A000024B1968024B1868FCF762BA7834002084
:1056B0009834002037B505460C46C0F3130108485E
:1056C000ED02006805D5224603B0BDE83040FCF786
:1056D00063BB009313462246FCF718FB03B030BDB2
:1056E0009834002030B405461346074A0C46C0F3F0
:1056F00013011068EA0203D5226830BCFCF74CBDE8
:10570000224630BCFCF74CBC98340020F7B5054667
:105710000F4614461E461BB92125284603B0F0BD8E
:105720000029F9D01AF048FC4BF23462ABB2934234
:1057300020D14FF0FF3322466946CDE9003325489A
:105740003346FFF7E3FF08220546234968461DF06C
:10575000EFFA38B933462246694641F2F010FFF7B6
:10576000D5FF0546002DD8D13246694638461DF092
:105770001BFBD2E741F2F01293420FD1174B3119C4
:1057800008299A6CDB6CC7D8CDE9002332460DEBB3
:10579000040138461DF008FB0025BEE702280BD1A6
:1057A000C5F30C4332199342B6D3C5F30B0104F190
:1057B0007E6432462144ECE7032809D1C5F30C434B
:1057C00032199342A8D3C5F30B0104F5FC24F0E78A
:1057D0000125A2E7021008C08E8D02000080E00FB4
:1057E00038B508460C461DF025FB034620B994E861
:1057F0000700024D85E80700184638BD941D0020BB
:105800002DE9F0432A48079F847A94424CD90668D0
:1058100002EB42024FEA820C16EB820246D050891C
:10582000002843D0B2F90440B2F906508C42B2F9D4
:1058300008E02FDCA942A8BF2946BEF1000F35D0F1
:1058400000F1FF381FFA88F80EFB08490A1B92FB8B
:10585000FEF24D45D8BF404692B2904202D3A942D3
:1058600018BF104656F80C2052F8206002EB800C4E
:1058700018B15CF8048D46450ED08D421EBF1EFB4C
:1058800000F1091909B2994209DC00203E60B98093
:10589000BDE8F0832146D0E7013880B2E8E7002870
:1058A000F3D0013880B2DFE70E20F1E70220EFE706
:1058B000941D002008B506494FF0FF30FFF790FF18
:1058C000BDE8084001214FF0FF301DF0B7BA00BF1E
:1058D000988D0200004870470080FFFF7FB51422BA
:1058E000002101A81DF04EFA044B01A94FF0FF3032
:1058F00002931DF0ECFA07B05DF804FB006A180093
:105900000322024B186019615A6370470000025C61
:105910003F22034B1A631022DA6103229A63704715
:105920000000025C024AD36B9B07FCD4704700BFA7
:105930000000025C044B9B6A13F0240F14BF01208B
:1059400000208000704700BF0000025C08B5FFF730
:10595000F1FF064BDB6B23F47F4323F0EF0303439C
:105960001EBF0122024BC3F8FC2F08BD0000025CE1
:1059700000F0FF3F4368182B0AD0202B1DD0102BBE
:105980002BD1174BD3F80434DB010AD40120704724
:10599000134BD3F804349A01F8D50B6843F008038D
:1059A0000B6003680F4A934210D10B6843F0400329
:1059B0000B600023436000207047094BD3F8043488
:1059C0005B01E3D50B6843F00403E9E7064A934221
:1059D000F1D10B6843F08003EAE70720704700BF6E
:1059E0000000025CDD2F0020DC2F00200B4607B5F5
:1059F0000749D1F80414C90708D5002100920246CE
:105A0000084600F043F803B05DF804FB0120FAE714
:105A10000000025C0B4607B50749D1F80414C9071A
:105A200008D5009201210246002000F02FF803B0B3
:105A30005DF804FB0120FAE70000025C13B5084C96
:105A4000D4F80444640709D5CDE900230B460021AE
:105A50000246084600F044F802B010BD0120FBE702
:105A60000000025C13B5084CD4F80444640709D55F
:105A7000CDE900230B4602460121002000F030F85A
:105A800002B010BD0120FBE70000025CF0B51C462F
:105A90005B6815468DB01A07129E1AD1CBB1726899
:105AA000934216D10C4B0D4A53F8217009AB07CA2B
:105AB00083E807001A462946CDE90533CDE90333CB
:105AC000CDE90163009447F480701AF0E2FA0DB05A
:105AD000F0BD0720FBE700BF4C8E0200408E0200A5
